{
  "contractName": "MerkleTreeGenerator",
  "abi": [
    {
      "inputs": [
        {
          "internalType": "contract Receipts",
          "name": "_receiptMaker",
          "type": "address"
        },
        {
          "internalType": "uint256",
          "name": "_pathLengthLimit",
          "type": "uint256"
        }
      ],
      "stateMutability": "nonpayable",
      "type": "constructor"
    },
    {
      "anonymous": false,
      "inputs": [
        {
          "indexed": true,
          "internalType": "address",
          "name": "previousOwner",
          "type": "address"
        },
        {
          "indexed": true,
          "internalType": "address",
          "name": "newOwner",
          "type": "address"
        }
      ],
      "name": "OwnershipTransferred",
      "type": "event"
    },
    {
      "inputs": [],
      "name": "MerkleTreeMaximalLeafCount",
      "outputs": [
        {
          "internalType": "uint256",
          "name": "",
          "type": "uint256"
        }
      ],
      "stateMutability": "view",
      "type": "function"
    },
    {
      "inputs": [],
      "name": "owner",
      "outputs": [
        {
          "internalType": "address",
          "name": "",
          "type": "address"
        }
      ],
      "stateMutability": "view",
      "type": "function"
    },
    {
      "inputs": [],
      "name": "receiptProviderAddress",
      "outputs": [
        {
          "internalType": "address",
          "name": "",
          "type": "address"
        }
      ],
      "stateMutability": "view",
      "type": "function"
    },
    {
      "inputs": [],
      "name": "renounceOwnership",
      "outputs": [],
      "stateMutability": "nonpayable",
      "type": "function"
    },
    {
      "inputs": [
        {
          "internalType": "address",
          "name": "newOwner",
          "type": "address"
        }
      ],
      "name": "transferOwnership",
      "outputs": [],
      "stateMutability": "nonpayable",
      "type": "function"
    },
    {
      "inputs": [
        {
          "internalType": "contract Receipts",
          "name": "_receiptMaker",
          "type": "address"
        }
      ],
      "name": "changeReceiptMaker",
      "outputs": [],
      "stateMutability": "nonpayable",
      "type": "function"
    },
    {
      "inputs": [
        {
          "internalType": "uint256",
          "name": "_pathLengthLimit",
          "type": "uint256"
        }
      ],
      "name": "changePathLengthLimit",
      "outputs": [],
      "stateMutability": "nonpayable",
      "type": "function"
    },
    {
      "inputs": [
        {
          "internalType": "uint256",
          "name": "_firstReceiptId",
          "type": "uint256"
        },
        {
          "internalType": "uint256",
          "name": "_lastReceiptId",
          "type": "uint256"
        }
      ],
      "name": "getArbitraryMerkleTree",
      "outputs": [
        {
          "internalType": "bytes32",
          "name": "",
          "type": "bytes32"
        },
        {
          "internalType": "uint256",
          "name": "",
          "type": "uint256"
        },
        {
          "internalType": "uint256",
          "name": "",
          "type": "uint256"
        },
        {
          "internalType": "uint256",
          "name": "",
          "type": "uint256"
        },
        {
          "internalType": "bytes32[]",
          "name": "",
          "type": "bytes32[]"
        }
      ],
      "stateMutability": "view",
      "type": "function"
    },
    {
      "inputs": [
        {
          "internalType": "uint256",
          "name": "_expectCount",
          "type": "uint256"
        }
      ],
      "name": "getMerkleTree",
      "outputs": [
        {
          "internalType": "uint256",
          "name": "",
          "type": "uint256"
        },
        {
          "internalType": "bytes32",
          "name": "",
          "type": "bytes32"
        },
        {
          "internalType": "uint256",
          "name": "",
          "type": "uint256"
        },
        {
          "internalType": "uint256",
          "name": "",
          "type": "uint256"
        },
        {
          "internalType": "uint256",
          "name": "",
          "type": "uint256"
        }
      ],
      "stateMutability": "view",
      "type": "function"
    },
    {
      "inputs": [
        {
          "internalType": "uint256",
          "name": "_firstReceiptId",
          "type": "uint256"
        },
        {
          "internalType": "uint256",
          "name": "_lastReceiptId",
          "type": "uint256"
        }
      ],
      "name": "getMerkleTreeRoot",
      "outputs": [
        {
          "internalType": "bytes32",
          "name": "",
          "type": "bytes32"
        }
      ],
      "stateMutability": "view",
      "type": "function"
    },
    {
      "inputs": [
        {
          "internalType": "uint256",
          "name": "_receiptId",
          "type": "uint256"
        },
        {
          "internalType": "uint256",
          "name": "_firstReceiptId",
          "type": "uint256"
        },
        {
          "internalType": "uint256",
          "name": "_lastReceiptId",
          "type": "uint256"
        }
      ],
      "name": "generateMerklePath",
      "outputs": [
        {
          "internalType": "uint256",
          "name": "",
          "type": "uint256"
        },
        {
          "internalType": "bytes32[]",
          "name": "",
          "type": "bytes32[]"
        },
        {
          "internalType": "bool[]",
          "name": "",
          "type": "bool[]"
        }
      ],
      "stateMutability": "view",
      "type": "function"
    }
  ],
  "bytecode": "0x60806040523480156200001157600080fd5b506040516200248738038062002487833981810160405260408110156200003757600080fd5b8101908080519060200190929190805190602001909291905050506000620000646200023260201b60201c565b9050806000806101000a81548173ffffffffffffffffffffffffffffffffffffffff021916908373ffffffffffffffffffffffffffffffffffffffff1602179055508073ffffffffffffffffffffffffffffffffffffffff16600073ffffffffffffffffffffffffffffffffffffffff167f8be0079c531659141344cd1fd0a4f28419497f9722a3daafe3b4186f6b6457e060405160405180910390a35081600460006101000a81548173ffffffffffffffffffffffffffffffffffffffff021916908373ffffffffffffffffffffffffffffffffffffffff16021790555081600360006101000a81548173ffffffffffffffffffffffffffffffffffffffff021916908373ffffffffffffffffffffffffffffffffffffffff160217905550600a811115620001fc576040517f08c379a000000000000000000000000000000000000000000000000000000000815260040180806020018281038252601e8152602001807f457863656564696e67204d6178696d616c2050617468204c656e6774682e000081525060200191505060405180910390fd5b806001901b6001819055506200022460026001546200023a60201b62000f6b1790919060201c565b6002819055505050620002c5565b600033905090565b6000808314156200024f5760009050620002bf565b60008284029050828482816200026157fe5b0414620002ba576040517f08c379a0000000000000000000000000000000000000000000000000000000008152600401808060200182810382526021815260200180620024666021913960400191505060405180910390fd5b809150505b92915050565b61219180620002d56000396000f3fe608060405234801561001057600080fd5b50600436106100a95760003560e01c80638da5cb5b116100715780638da5cb5b146102345780638ee281881461026857806391e6a5ca146102b4578063a3e2f3c614610312578063ae285581146103bb578063f2fde38b146103e9576100a9565b80635782d176146100ae578063715018a6146100f25780637200e261146100fc5780637d6665651461011a578063856bf9ed1461014e575b600080fd5b6100f0600480360360208110156100c457600080fd5b81019080803573ffffffffffffffffffffffffffffffffffffffff16906020019092919050505061042d565b005b6100fa61057a565b005b610104610700565b6040518082815260200191505060405180910390f35b610122610706565b604051808273ffffffffffffffffffffffffffffffffffffffff16815260200191505060405180910390f35b61018e6004803603606081101561016457600080fd5b8101908080359060200190929190803590602001909291908035906020019092919050505061072c565b604051808481526020018060200180602001838103835285818151815260200191508051906020019060200280838360005b838110156101db5780820151818401526020810190506101c0565b50505050905001838103825284818151815260200191508051906020019060200280838360005b8381101561021d578082015181840152602081019050610202565b505050509050019550505050505060405180910390f35b61023c6108e6565b604051808273ffffffffffffffffffffffffffffffffffffffff16815260200191505060405180910390f35b61029e6004803603604081101561027e57600080fd5b81019080803590602001909291908035906020019092919050505061090f565b6040518082815260200191505060405180910390f35b6102e0600480360360208110156102ca57600080fd5b8101908080359060200190929190505050610961565b604051808681526020018581526020018481526020018381526020018281526020019550505050505060405180910390f35b6103486004803603604081101561032857600080fd5b810190808035906020019092919080359060200190929190505050610b83565b6040518086815260200185815260200184815260200183815260200180602001828103825283818151815260200191508051906020019060200280838360005b838110156103a3578082015181840152602081019050610388565b50505050905001965050505050505060405180910390f35b6103e7600480360360208110156103d157600080fd5b8101908080359060200190929190505050610bf7565b005b61042b600480360360208110156103ff57600080fd5b81019080803573ffffffffffffffffffffffffffffffffffffffff169060200190929190505050610d60565b005b610435610ff1565b73ffffffffffffffffffffffffffffffffffffffff1660008054906101000a900473ffffffffffffffffffffffffffffffffffffffff1673ffffffffffffffffffffffffffffffffffffffff16146104f5576040517f08c379a00000000000000000000000000000000000000000000000000000000081526004018080602001828103825260208152602001807f4f776e61626c653a2063616c6c6572206973206e6f7420746865206f776e657281525060200191505060405180910390fd5b80600460006101000a81548173ffffffffffffffffffffffffffffffffffffffff021916908373ffffffffffffffffffffffffffffffffffffffff16021790555080600360006101000a81548173ffffffffffffffffffffffffffffffffffffffff021916908373ffffffffffffffffffffffffffffffffffffffff16021790555050565b610582610ff1565b73ffffffffffffffffffffffffffffffffffffffff1660008054906101000a900473ffffffffffffffffffffffffffffffffffffffff1673ffffffffffffffffffffffffffffffffffffffff1614610642576040517f08c379a00000000000000000000000000000000000000000000000000000000081526004018080602001828103825260208152602001807f4f776e61626c653a2063616c6c6572206973206e6f7420746865206f776e657281525060200191505060405180910390fd5b600073ffffffffffffffffffffffffffffffffffffffff1660008054906101000a900473ffffffffffffffffffffffffffffffffffffffff1673ffffffffffffffffffffffffffffffffffffffff167f8be0079c531659141344cd1fd0a4f28419497f9722a3daafe3b4186f6b6457e060405160405180910390a360008060006101000a81548173ffffffffffffffffffffffffffffffffffffffff021916908373ffffffffffffffffffffffffffffffffffffffff160217905550565b60015481565b600460009054906101000a900473ffffffffffffffffffffffffffffffffffffffff1681565b60006060808484101561073e57600080fd5b83861115801561074e5750848610155b61075757600080fd5b61075f6120a3565b61078e86610789600161077b8a8a610ff990919063ffffffff16565b61104390919063ffffffff16565b6110cb565b5080915050600081604001518803905060006107a86120ce565b6107b06120f1565b6107ba85856111da565b80935081945082955050505060608367ffffffffffffffff811180156107df57600080fd5b5060405190808252806020026020018201604052801561080e5781602001602082028036833780820191505090505b50905060608467ffffffffffffffff8111801561082a57600080fd5b506040519080825280602002602001820160405280156108595781602001602082028036833780820191505090505b50905060005b858110156108cc578481600a811061087357fe5b602002015183828151811061088457fe5b6020026020010181815250508381600a811061089c57fe5b60200201518282815181106108ad57fe5b602002602001019015159081151581525050808060010191505061085f565b508482829950995099505050505050505093509350939050565b60008060009054906101000a900473ffffffffffffffffffffffffffffffffffffffff16905090565b60006109196120a3565b606061094a8561094560016109378989610ff990919063ffffffff16565b61104390919063ffffffff16565b6110cb565b809250819350505081600001519250505092915050565b600080600080600080600360009054906101000a900473ffffffffffffffffffffffffffffffffffffffff1673ffffffffffffffffffffffffffffffffffffffff16637f038f3c6040518163ffffffff1660e01b815260040160206040518083038186803b1580156109d257600080fd5b505afa1580156109e6573d6000803e3d6000fd5b505050506040513d60208110156109fc57600080fd5b81019080805190602001909291905050509050600087118015610a1f5750600081115b8015610a3e575086610a3c6001548361104390919063ffffffff16565b115b610a4757600080fd5b600080610a5f600154846112df90919063ffffffff16565b14610a6b576001610a6e565b60005b60ff16905087610ac3610a8c60015484610f6b90919063ffffffff16565b610ab5600154610aa76001548861132990919063ffffffff16565b610f6b90919063ffffffff16565b61104390919063ffffffff16565b1015610ace57600080fd5b610ad66120a3565b60606000848b10610ae75784610ae9565b8a5b90506000610b15600154610b07600185610ff990919063ffffffff16565b61132990919063ffffffff16565b90506000610b2e60015483610f6b90919063ffffffff16565b9050610b4c81610b478386610ff990919063ffffffff16565b6110cb565b80955081965050508185600001518660400151876020015188606001519b509b509b509b509b505050505050505091939590929450565b6000806000806060610b936120a3565b6060610bc489610bbf6001610bb18d8d610ff990919063ffffffff16565b61104390919063ffffffff16565b6110cb565b80925081935050508160000151826040015183602001518460600151849650965096509650965050509295509295909350565b610bff610ff1565b73ffffffffffffffffffffffffffffffffffffffff1660008054906101000a900473ffffffffffffffffffffffffffffffffffffffff1673ffffffffffffffffffffffffffffffffffffffff1614610cbf576040517f08c379a00000000000000000000000000000000000000000000000000000000081526004018080602001828103825260208152602001807f4f776e61626c653a2063616c6c6572206973206e6f7420746865206f776e657281525060200191505060405180910390fd5b600a811115610d36576040517f08c379a000000000000000000000000000000000000000000000000000000000815260040180806020018281038252601e8152602001807f457863656564696e67204d6178696d616c2050617468204c656e6774682e000081525060200191505060405180910390fd5b806001901b600181905550610d576002600154610f6b90919063ffffffff16565b60028190555050565b610d68610ff1565b73ffffffffffffffffffffffffffffffffffffffff1660008054906101000a900473ffffffffffffffffffffffffffffffffffffffff1673ffffffffffffffffffffffffffffffffffffffff1614610e28576040517f08c379a00000000000000000000000000000000000000000000000000000000081526004018080602001828103825260208152602001807f4f776e61626c653a2063616c6c6572206973206e6f7420746865206f776e657281525060200191505060405180910390fd5b600073ffffffffffffffffffffffffffffffffffffffff168173ffffffffffffffffffffffffffffffffffffffff161415610eae576040517f08c379a00000000000000000000000000000000000000000000000000000000081526004018080602001828103825260268152602001806121156026913960400191505060405180910390fd5b8073ffffffffffffffffffffffffffffffffffffffff1660008054906101000a900473ffffffffffffffffffffffffffffffffffffffff1673ffffffffffffffffffffffffffffffffffffffff167f8be0079c531659141344cd1fd0a4f28419497f9722a3daafe3b4186f6b6457e060405160405180910390a3806000806101000a81548173ffffffffffffffffffffffffffffffffffffffff021916908373ffffffffffffffffffffffffffffffffffffffff16021790555050565b600080831415610f7e5760009050610feb565b6000828402905082848281610f8f57fe5b0414610fe6576040517f08c379a000000000000000000000000000000000000000000000000000000000815260040180806020018281038252602181526020018061213b6021913960400191505060405180910390fd5b809150505b92915050565b600033905090565b600061103b83836040518060400160405280601e81526020017f536166654d6174683a207375627472616374696f6e206f766572666c6f770000815250611373565b905092915050565b6000808284019050838110156110c1576040517f08c379a000000000000000000000000000000000000000000000000000000000815260040180806020018281038252601b8152602001807f536166654d6174683a206164646974696f6e206f766572666c6f77000000000081525060200191505060405180910390fd5b8091505092915050565b6110d36120a3565b6060806110e08585611433565b9050606060006110ef836119d9565b80925081935050506110ff6120a3565b604051806080016040528084600185038151811061111957fe5b6020026020010151815260200188815260200189815260200183815250905060608267ffffffffffffffff8111801561115157600080fd5b506040519080825280602002602001820160405280156111805781602001602082028036833780820191505090505b50905060005b838110156111c75784818151811061119a57fe5b60200260200101518282815181106111ae57fe5b6020026020010181815250508080600101915050611186565b5081819650965050505050509250929050565b60006111e46120ce565b6111ec6120f1565b606061120086604001518760200151611433565b90506060600061120f836119d9565b80925081935050508760600151811461122757600080fd5b6060886060015167ffffffffffffffff8111801561124457600080fd5b506040519080825280602002602001820160405280156112735781602001602082028036833780820191505090505b50905060005b89606001518110156112be5783818151811061129157fe5b60200260200101518282815181106112a557fe5b6020026020010181815250508080600101915050611279565b506112ce818a602001518a611d4a565b965096509650505050509250925092565b600061132183836040518060400160405280601881526020017f536166654d6174683a206d6f64756c6f206279207a65726f0000000000000000815250611f1c565b905092915050565b600061136b83836040518060400160405280601a81526020017f536166654d6174683a206469766973696f6e206279207a65726f000000000000815250611fdd565b905092915050565b6000838311158290611420576040517f08c379a00000000000000000000000000000000000000000000000000000000081526004018080602001828103825283818151815260200191508051906020019080838360005b838110156113e55780820151818401526020810190506113ca565b50505050905090810190601f1680156114125780820380516001836020036101000a031916815260200191505b509250505060405180910390fd5b5060008385039050809150509392505050565b6060808267ffffffffffffffff8111801561144d57600080fd5b5060405190808252806020026020018201604052801561147c5781602001602082028036833780820191505090505b50905060008490505b8385018110156119ce5760606000600360009054906101000a900473ffffffffffffffffffffffffffffffffffffffff1673ffffffffffffffffffffffffffffffffffffffff16630f7ee1ec846040518263ffffffff1660e01b81526004018082815260200191505060006040518083038186803b15801561150657600080fd5b505afa15801561151a573d6000803e3d6000fd5b505050506040513d6000823e3d601f19601f8201168201806040525060e081101561154457600080fd5b8101908080519060200190929190805190602001909291908051604051939291908464010000000082111561157857600080fd5b8382019150602082018581111561158e57600080fd5b82518660018202830111640100000000821117156115ab57600080fd5b8083526020830192505050908051906020019080838360005b838110156115df5780820151818401526020810190506115c4565b50505050905090810190601f16801561160c5780820380516001836020036101000a031916815260200191505b50604052602001805190602001909291908051906020019092919080519060200190929190805190602001909291905050505050509350935050506000600282604051602001808281526020019150506040516020818303038152906040526040518082805190602001908083835b6020831061169e578051825260208201915060208101905060208303925061167b565b6001836020036101000a038019825116818451168082178552505050505050905001915050602060405180830381855afa1580156116e0573d6000803e3d6000fd5b5050506040513d60208110156116f557600080fd5b8101908080519060200190929190505050905060006002846040516020018082805190602001908083835b602083106117435780518252602082019150602081019050602083039250611720565b6001836020036101000a0380198251168184511680821785525050505050509050019150506040516020818303038152906040526040518082805190602001908083835b602083106117aa5780518252602082019150602081019050602083039250611787565b6001836020036101000a038019825116818451168082178552505050505050905001915050602060405180830381855afa1580156117ec573d6000803e3d6000fd5b5050506040513d602081101561180157600080fd5b810190808051906020019092919050505090506000600286604051602001808281526020019150506040516020818303038152906040526040518082805190602001908083835b6020831061186b5780518252602082019150602081019050602083039250611848565b6001836020036101000a038019825116818451168082178552505050505050905001915050602060405180830381855afa1580156118ad573d6000803e3d6000fd5b5050506040513d60208110156118c257600080fd5b8101908080519060200190929190505050905060028383836040516020018084815260200183815260200182815260200193505050506040516020818303038152906040526040518082805190602001908083835b6020831061193a5780518252602082019150602081019050602083039250611917565b6001836020036101000a038019825116818451168082178552505050505050905001915050602060405180830381855afa15801561197c573d6000803e3d6000fd5b5050506040513d602081101561199157600080fd5b8101908080519060200190929190505050878b8803815181106119b057fe5b60200260200101818152505050505050508080600101915050611485565b508091505092915050565b606060008083519050600080600080606060025467ffffffffffffffff81118015611a0357600080fd5b50604051908082528060200260200182016040528015611a325781602001602082028036833780820191505090505b50905060005b86811015611a7957898181518110611a4c57fe5b6020026020010151828281518110611a6057fe5b6020026020010181815250508080600101915050611a38565b5060008690506001611a9660028c516112df90919063ffffffff16565b1415611af25789611ab1600189610ff990919063ffffffff16565b81518110611abb57fe5b6020026020010151828881518110611acf57fe5b602002602001018181525050611aef60018261104390919063ffffffff16565b90505b6000611b0860028361132990919063ffffffff16565b90505b611b1f600183610ff990919063ffffffff16565b841015611d3757828481518110611b3257fe5b60200260200101519650611b5060018561104390919063ffffffff16565b9350828481518110611b5e57fe5b60200260200101519550611b7c60018561104390919063ffffffff16565b93506002878760405160200180838152602001828152602001925050506040516020818303038152906040526040518082805190602001908083835b60208310611bdb5780518252602082019150602081019050602083039250611bb8565b6001836020036101000a038019825116818451168082178552505050505050905001915050602060405180830381855afa158015611c1d573d6000803e3d6000fd5b5050506040513d6020811015611c3257600080fd5b8101908080519060200190929190505050838381518110611c4f57fe5b602002602001018181525050611c6f60018361104390919063ffffffff16565b9150808560010195508514611c8357611b0b565b6001611c996002836112df90919063ffffffff16565b148015611ca7575060018114155b15611d1857611cc060018261104390919063ffffffff16565b905082611cd7600184610ff990919063ffffffff16565b81518110611ce157fe5b6020026020010151838381518110611cf557fe5b602002602001018181525050611d1560018361104390919063ffffffff16565b91505b611d2c60028261132990919063ffffffff16565b905060009450611b0b565b8282995099505050505050505050915091565b6000611d546120ce565b611d5c6120f1565b611d646120ce565b611d6c6120f1565b600080889050600080600080600090505b611d9260018f51610ff990919063ffffffff16565b8c1015611f02576000611daf60028e6112df90919063ffffffff16565b1415611de7578d611dca60018e61104390919063ffffffff16565b81518110611dd457fe5b6020026020010151935060009250611e15565b8d611dfc60018e610ff990919063ffffffff16565b81518110611e0657fe5b60200260200101519350600192505b838882600a8110611e2257fe5b602002018181525050828782600a8110611e3857fe5b602002019015159081151581525050611e5b60018261104390919063ffffffff16565b90506000611e736002876112df90919063ffffffff16565b14611e9157611e8c60018661104390919063ffffffff16565b611e93565b845b9450611ebb6002611ead888f610ff990919063ffffffff16565b61132990919063ffffffff16565b9150611ed0858761104390919063ffffffff16565b9550611ee5828761104390919063ffffffff16565b9b50611efb60028661132990919063ffffffff16565b9450611d7d565b8088889a509a509a50505050505050505093509350939050565b6000808314158290611fc9576040517f08c379a00000000000000000000000000000000000000000000000000000000081526004018080602001828103825283818151815260200191508051906020019080838360005b83811015611f8e578082015181840152602081019050611f73565b50505050905090810190601f168015611fbb5780820380516001836020036101000a031916815260200191505b509250505060405180910390fd5b50828481611fd357fe5b0690509392505050565b60008083118290612089576040517f08c379a00000000000000000000000000000000000000000000000000000000081526004018080602001828103825283818151815260200191508051906020019080838360005b8381101561204e578082015181840152602081019050612033565b50505050905090810190601f16801561207b5780820380516001836020036101000a031916815260200191505b509250505060405180910390fd5b50600083858161209557fe5b049050809150509392505050565b6040518060800160405280600080191681526020016000815260200160008152602001600081525090565b604051806101400160405280600a90602082028036833780820191505090505090565b604051806101400160405280600a9060208202803683378082019150509050509056fe4f776e61626c653a206e6577206f776e657220697320746865207a65726f2061646472657373536166654d6174683a206d756c7469706c69636174696f6e206f766572666c6f77a26469706673582212206422122f3970b130f66edc5692e16d465030ba8495871f580f78838be39e751864736f6c634300060c0033536166654d6174683a206d756c7469706c69636174696f6e206f766572666c6f77",
  "immutableReferences": {},
  "source": "import \"@openzeppelin/contracts/access/Ownable.sol\";\nimport \"./Receipts.sol\";\nimport \"@openzeppelin/contracts/math/SafeMath.sol\";\n\npragma solidity 0.6.12;\n\ncontract MerkleTreeGenerator is Ownable {\n\n    using SafeMath for uint256;\n\n    uint256 constant pathMaximalLength = 10;\n    uint256 public MerkleTreeMaximalLeafCount;\n    uint256 MerkleTreeMaximalSize;\n\n    Receipts receiptProvider;\n    address public receiptProviderAddress;\n\n    struct MerkleTree {\n        bytes32 root;\n        uint256 leaf_count;\n        uint256 first_receipt_id;\n        uint256 size;\n    }\n\n    constructor (Receipts _receiptMaker, uint256 _pathLengthLimit) public {\n        receiptProviderAddress = address(_receiptMaker);\n        receiptProvider = _receiptMaker;\n        require(_pathLengthLimit <= pathMaximalLength, \"Exceeding Maximal Path Length.\");\n        MerkleTreeMaximalLeafCount = 1 << _pathLengthLimit;\n        MerkleTreeMaximalSize = MerkleTreeMaximalLeafCount.mul(2);\n    }\n\n    function changeReceiptMaker(Receipts _receiptMaker) onlyOwner public {\n        receiptProviderAddress = address(_receiptMaker);\n        receiptProvider = _receiptMaker;\n    }\n\n    function changePathLengthLimit(uint256 _pathLengthLimit) onlyOwner public {\n        require(_pathLengthLimit <= pathMaximalLength, \"Exceeding Maximal Path Length.\");\n        MerkleTreeMaximalLeafCount = 1 << _pathLengthLimit;\n        MerkleTreeMaximalSize = MerkleTreeMaximalLeafCount.mul(2);\n    }\n\n    //fetch receipts\n    function _receiptsToLeaves(uint256 _start, uint256 _leafCount) private view returns (bytes32[] memory){\n        bytes32[] memory leaves = new bytes32[](_leafCount);\n\n        for (uint256 i = _start; i < _start + _leafCount; i++) {\n            (\n            ,\n            ,\n            string memory targetAddress,\n            uint256 amount,\n            ,\n            ,\n            ) = receiptProvider.receipts(i);\n\n            bytes32 amountHash = sha256(abi.encodePacked(amount));\n            bytes32 targetAddressHash = sha256(abi.encodePacked(targetAddress));\n            bytes32 receiptIdHash = sha256(abi.encodePacked(i));\n\n            leaves[i - _start] = (sha256(abi.encode(amountHash, targetAddressHash, receiptIdHash)));\n        }\n\n        return leaves;\n    }\n\n    function getArbitraryMerkleTree(uint256 _firstReceiptId, uint256 _lastReceiptId) public view returns (bytes32, uint256, uint256, uint256, bytes32[] memory){\n        MerkleTree memory merkleTree;\n        bytes32[] memory treeNodes;\n        (merkleTree, treeNodes) = _generateMerkleTree(_firstReceiptId, _lastReceiptId.sub(_firstReceiptId).add(1));\n        return (merkleTree.root, merkleTree.first_receipt_id, merkleTree.leaf_count, merkleTree.size, treeNodes);\n    }\n\n    function getMerkleTree(uint256 _expectCount) public view returns (uint256, bytes32, uint256, uint256, uint256){\n        uint256 receiptCount = receiptProvider.receiptCount();\n        require(_expectCount > 0 && receiptCount > 0 && receiptCount.add(MerkleTreeMaximalLeafCount) > _expectCount);\n        uint256 needMore = receiptCount.mod(MerkleTreeMaximalLeafCount) == 0 ? 0 : 1;\n        require(receiptCount.div(MerkleTreeMaximalLeafCount).mul(MerkleTreeMaximalLeafCount).add(needMore.mul(MerkleTreeMaximalLeafCount)) >= _expectCount);\n        MerkleTree memory merkleTree;\n        bytes32[] memory treeNodes;\n        uint256 actualCount = _expectCount < receiptCount ? _expectCount : receiptCount;\n        uint256 previousTreeCount = actualCount.sub(1).div(MerkleTreeMaximalLeafCount);\n        uint256 firstReceiptId = previousTreeCount.mul(MerkleTreeMaximalLeafCount);\n        (merkleTree, treeNodes) = _generateMerkleTree(firstReceiptId, actualCount.sub(firstReceiptId));\n        return (previousTreeCount, merkleTree.root, merkleTree.first_receipt_id, merkleTree.leaf_count, merkleTree.size);\n    }\n\n    function getMerkleTreeRoot(uint256 _firstReceiptId, uint256 _lastReceiptId) public view returns (bytes32){\n        MerkleTree memory merkleTree;\n        bytes32[] memory treeNodes;\n        (merkleTree, treeNodes) = _generateMerkleTree(_firstReceiptId, _lastReceiptId.sub(_firstReceiptId).add(1));\n        return merkleTree.root;\n    }\n\n    //get users merkle tree path\n    function generateMerklePath(uint256 _receiptId, uint256 _firstReceiptId, uint256 _lastReceiptId) public view returns (uint256, bytes32[] memory, bool[] memory) {\n        require(_lastReceiptId >= _firstReceiptId);\n        require(_receiptId <= _lastReceiptId && _receiptId >= _firstReceiptId);\n        MerkleTree memory merkleTree;\n        (merkleTree,) = _generateMerkleTree(_firstReceiptId, _lastReceiptId.sub(_firstReceiptId).add(1));\n        uint256 index = _receiptId - merkleTree.first_receipt_id;\n\n        uint256 pathLength;\n        bytes32[pathMaximalLength] memory path;\n        bool[pathMaximalLength] memory isLeftNeighbors;\n        (pathLength, path, isLeftNeighbors) = _generatePath(merkleTree, index);\n\n        bytes32[] memory neighbors = new bytes32[](pathLength);\n        bool[] memory positions = new bool[](pathLength);\n\n        for (uint256 i = 0; i < pathLength; i++) {\n            neighbors[i] = path[i];\n            positions[i] = isLeftNeighbors[i];\n        }\n        return (pathLength, neighbors, positions);\n    }\n\n    function _generateMerkleTree(uint256 _firstReceiptId, uint256 _leafCount) private view returns (MerkleTree memory, bytes32[] memory) {\n        bytes32[] memory leafNodes = _receiptsToLeaves(_firstReceiptId, _leafCount);\n        bytes32[] memory allNodes;\n        uint256 nodeCount;\n\n        (allNodes, nodeCount) = _leavesToTree(leafNodes);\n        MerkleTree memory merkleTree = MerkleTree(allNodes[nodeCount - 1], _leafCount, _firstReceiptId, nodeCount);\n\n        bytes32[] memory treeNodes = new bytes32[](nodeCount);\n        for (uint256 t = 0; t < nodeCount; t++) {\n            treeNodes[t] = allNodes[t];\n        }\n        return (merkleTree, treeNodes);\n    }\n\n    function _generatePath(MerkleTree memory _merkleTree, uint256 _index) private view returns (uint256, bytes32[pathMaximalLength] memory, bool[pathMaximalLength] memory){\n\n        bytes32[] memory leaves = _receiptsToLeaves(_merkleTree.first_receipt_id, _merkleTree.leaf_count);\n        bytes32[] memory allNodes;\n        uint256 nodeCount;\n\n        (allNodes, nodeCount) = _leavesToTree(leaves);\n        require(nodeCount == _merkleTree.size);\n\n        bytes32[] memory nodes = new bytes32[](_merkleTree.size);\n        for (uint256 t = 0; t < _merkleTree.size; t++) {\n            nodes[t] = allNodes[t];\n        }\n\n        return _generatePath(nodes, _merkleTree.leaf_count, _index);\n    }\n\n    function _generatePath(bytes32[] memory _nodes, uint256 _leafCount, uint256 _index) private pure returns (uint256, bytes32[pathMaximalLength] memory, bool[pathMaximalLength] memory){\n        bytes32[pathMaximalLength] memory neighbors;\n        bool[pathMaximalLength] memory isLeftNeighbors;\n        uint256 indexOfFirstNodeInRow = 0;\n        uint256 nodeCountInRow = _leafCount;\n        bytes32 neighbor;\n        bool isLeftNeighbor;\n        uint256 shift;\n        uint256 i = 0;\n\n        while (_index < _nodes.length.sub(1)) {\n\n            if (_index.mod(2) == 0)\n            {\n                // add right neighbor node\n                neighbor = _nodes[_index.add(1)];\n                isLeftNeighbor = false;\n            }\n            else\n            {\n                // add left neighbor node\n                neighbor = _nodes[_index.sub(1)];\n                isLeftNeighbor = true;\n            }\n\n            neighbors[i] = neighbor;\n            isLeftNeighbors[i] = isLeftNeighbor;\n            i = i.add(1);\n\n            nodeCountInRow = nodeCountInRow.mod(2) == 0 ? nodeCountInRow : nodeCountInRow.add(1);\n            shift = _index.sub(indexOfFirstNodeInRow).div(2);\n            indexOfFirstNodeInRow = indexOfFirstNodeInRow.add(nodeCountInRow);\n            _index = indexOfFirstNodeInRow.add(shift);\n            nodeCountInRow = nodeCountInRow.div(2);\n        }\n\n        return (i, neighbors, isLeftNeighbors);\n    }\n\n    function _leavesToTree(bytes32[] memory _leaves) private view returns (bytes32[] memory, uint256){\n        uint256 leafCount = _leaves.length;\n        bytes32 left;\n        bytes32 right;\n\n        uint256 newAdded = 0;\n        uint256 i = 0;\n\n        bytes32[] memory nodes = new bytes32[](MerkleTreeMaximalSize);\n\n        for (uint256 t = 0; t < leafCount; t++)\n        {\n            nodes[t] = _leaves[t];\n        }\n\n        uint256 nodeCount = leafCount;\n        if (_leaves.length.mod(2) == 1) {\n            nodes[leafCount] = (_leaves[leafCount.sub(1)]);\n            nodeCount = nodeCount.add(1);\n        }\n\n        // uint256 nodeToAdd = nodes.length / 2;\n        uint256 nodeToAdd = nodeCount.div(2);\n\n        while (i < nodeCount.sub(1)) {\n\n            left = nodes[i];\n            i = i.add(1);\n\n            right = nodes[i];\n            i = i.add(1);\n\n            nodes[nodeCount] = sha256(abi.encode(left, right));\n            nodeCount = nodeCount.add(1);\n\n            if (++newAdded != nodeToAdd)\n                continue;\n\n            if (nodeToAdd.mod(2) == 1 && nodeToAdd != 1)\n            {\n                nodeToAdd = nodeToAdd.add(1);\n                nodes[nodeCount] = nodes[nodeCount.sub(1)];\n                nodeCount = nodeCount.add(1);\n            }\n\n            nodeToAdd = nodeToAdd.div(2);\n            newAdded = 0;\n        }\n\n        return (nodes, nodeCount);\n    }\n}",
  "sourcePath": "/Users/swk/Documents/Hoopox/shiwk/token_swap/sol/token_swap/contracts/merkle.sol",
  "compiler": {
    "name": "solc",
    "version": "0.6.12+commit.27d51765.Emscripten.clang"
  },
  "schemaVersion": "3.2.3",
  "updatedAt": "2021-01-28T04:26:17.703Z",
  "devdoc": {
    "kind": "dev",
    "methods": {
      "owner()": {
        "details": "Returns the address of the current owner."
      },
      "renounceOwnership()": {
        "details": "Leaves the contract without owner. It will not be possible to call `onlyOwner` functions anymore. Can only be called by the current owner. NOTE: Renouncing ownership will leave the contract without an owner, thereby removing any functionality that is only available to the owner."
      },
      "transferOwnership(address)": {
        "details": "Transfers ownership of the contract to a new account (`newOwner`). Can only be called by the current owner."
      }
    },
    "version": 1
  },
  "userdoc": {
    "kind": "user",
    "methods": {},
    "version": 1
  }
}