{
  "contractName": "MerkleTreeGenerator",
  "abi": [
    {
      "inputs": [
        {
          "internalType": "contract Receipts",
          "name": "_receiptMaker",
          "type": "address"
        }
      ],
      "stateMutability": "nonpayable",
      "type": "constructor"
    },
    {
      "anonymous": false,
      "inputs": [
        {
          "indexed": false,
          "internalType": "uint256",
          "name": "treeIndex",
          "type": "uint256"
        }
      ],
      "name": "NewTree",
      "type": "event"
    },
    {
      "anonymous": false,
      "inputs": [
        {
          "indexed": true,
          "internalType": "address",
          "name": "previousOwner",
          "type": "address"
        },
        {
          "indexed": true,
          "internalType": "address",
          "name": "newOwner",
          "type": "address"
        }
      ],
      "name": "OwnershipTransferred",
      "type": "event"
    },
    {
      "inputs": [],
      "name": "MerkleTreeMaximalLeafCount",
      "outputs": [
        {
          "internalType": "uint256",
          "name": "",
          "type": "uint256"
        }
      ],
      "stateMutability": "view",
      "type": "function"
    },
    {
      "inputs": [],
      "name": "merkleTreeCount",
      "outputs": [
        {
          "internalType": "uint256",
          "name": "",
          "type": "uint256"
        }
      ],
      "stateMutability": "view",
      "type": "function"
    },
    {
      "inputs": [],
      "name": "owner",
      "outputs": [
        {
          "internalType": "address",
          "name": "",
          "type": "address"
        }
      ],
      "stateMutability": "view",
      "type": "function"
    },
    {
      "inputs": [],
      "name": "receiptCountInTree",
      "outputs": [
        {
          "internalType": "uint256",
          "name": "",
          "type": "uint256"
        }
      ],
      "stateMutability": "view",
      "type": "function"
    },
    {
      "inputs": [],
      "name": "receiptProviderAddress",
      "outputs": [
        {
          "internalType": "address",
          "name": "",
          "type": "address"
        }
      ],
      "stateMutability": "view",
      "type": "function"
    },
    {
      "inputs": [],
      "name": "renounceOwnership",
      "outputs": [],
      "stateMutability": "nonpayable",
      "type": "function"
    },
    {
      "inputs": [
        {
          "internalType": "address",
          "name": "newOwner",
          "type": "address"
        }
      ],
      "name": "transferOwnership",
      "outputs": [],
      "stateMutability": "nonpayable",
      "type": "function"
    },
    {
      "inputs": [],
      "name": "recordReceipts",
      "outputs": [],
      "stateMutability": "nonpayable",
      "type": "function"
    },
    {
      "inputs": [
        {
          "internalType": "uint256",
          "name": "_treeIndex",
          "type": "uint256"
        }
      ],
      "name": "getMerkleTree",
      "outputs": [
        {
          "internalType": "bytes32",
          "name": "",
          "type": "bytes32"
        },
        {
          "internalType": "uint256",
          "name": "",
          "type": "uint256"
        },
        {
          "internalType": "uint256",
          "name": "",
          "type": "uint256"
        },
        {
          "internalType": "uint256",
          "name": "",
          "type": "uint256"
        },
        {
          "internalType": "bytes32[]",
          "name": "",
          "type": "bytes32[]"
        }
      ],
      "stateMutability": "view",
      "type": "function"
    },
    {
      "inputs": [
        {
          "internalType": "uint256",
          "name": "_treeIndex",
          "type": "uint256"
        }
      ],
      "name": "getMerkleTreeRoot",
      "outputs": [
        {
          "internalType": "bytes32",
          "name": "",
          "type": "bytes32"
        }
      ],
      "stateMutability": "view",
      "type": "function"
    },
    {
      "inputs": [
        {
          "internalType": "uint256",
          "name": "_receiptId",
          "type": "uint256"
        }
      ],
      "name": "generateMerklePath",
      "outputs": [
        {
          "internalType": "uint256",
          "name": "",
          "type": "uint256"
        },
        {
          "internalType": "uint256",
          "name": "",
          "type": "uint256"
        },
        {
          "internalType": "bytes32[]",
          "name": "",
          "type": "bytes32[]"
        },
        {
          "internalType": "bool[]",
          "name": "",
          "type": "bool[]"
        }
      ],
      "stateMutability": "view",
      "type": "function"
    }
  ],
  "bytecode": "0x60806040526000600155600060025534801561001a57600080fd5b506040516121003803806121008339818101604052602081101561003d57600080fd5b8101908080519060200190929190505050600061005e61018460201b60201c565b9050806000806101000a81548173ffffffffffffffffffffffffffffffffffffffff021916908373ffffffffffffffffffffffffffffffffffffffff1602179055508073ffffffffffffffffffffffffffffffffffffffff16600073ffffffffffffffffffffffffffffffffffffffff167f8be0079c531659141344cd1fd0a4f28419497f9722a3daafe3b4186f6b6457e060405160405180910390a35080600560006101000a81548173ffffffffffffffffffffffffffffffffffffffff021916908373ffffffffffffffffffffffffffffffffffffffff16021790555080600460006101000a81548173ffffffffffffffffffffffffffffffffffffffff021916908373ffffffffffffffffffffffffffffffffffffffff1602179055505061018c565b600033905090565b611f658061019b6000396000f3fe608060405234801561001057600080fd5b50600436106100a95760003560e01c80638da5cb5b116100715780638da5cb5b1461013257806391e6a5ca14610166578063b0f1d3f114610205578063cd459bc614610223578063dabc4d51146102fc578063f2fde38b1461033e576100a9565b806356cb4e9e146100ae5780636a29a705146100b8578063715018a6146100d65780637200e261146100e05780637d666565146100fe575b600080fd5b6100b6610382565b005b6100c0610672565b6040518082815260200191505060405180910390f35b6100de610678565b005b6100e86107fe565b6040518082815260200191505060405180910390f35b610106610807565b604051808273ffffffffffffffffffffffffffffffffffffffff16815260200191505060405180910390f35b61013a61082d565b604051808273ffffffffffffffffffffffffffffffffffffffff16815260200191505060405180910390f35b6101926004803603602081101561017c57600080fd5b8101908080359060200190929190505050610856565b6040518086815260200185815260200184815260200183815260200180602001828103825283818151815260200191508051906020019060200280838360005b838110156101ed5780820151818401526020810190506101d2565b50505050905001965050505050505060405180910390f35b61020d610906565b6040518082815260200191505060405180910390f35b61024f6004803603602081101561023957600080fd5b810190808035906020019092919050505061090c565b604051808581526020018481526020018060200180602001838103835285818151815260200191508051906020019060200280838360005b838110156102a2578082015181840152602081019050610287565b50505050905001838103825284818151815260200191508051906020019060200280838360005b838110156102e45780820151818401526020810190506102c9565b50505050905001965050505050505060405180910390f35b6103286004803603602081101561031257600080fd5b8101908080359060200190929190505050610b27565b6040518082815260200191505060405180910390f35b6103806004803603602081101561035457600080fd5b81019080803573ffffffffffffffffffffffffffffffffffffffff169060200190929190505050610bb5565b005b61038a610dc0565b73ffffffffffffffffffffffffffffffffffffffff1660008054906101000a900473ffffffffffffffffffffffffffffffffffffffff1673ffffffffffffffffffffffffffffffffffffffff161461044a576040517f08c379a00000000000000000000000000000000000000000000000000000000081526004018080602001828103825260208152602001807f4f776e61626c653a2063616c6c6572206973206e6f7420746865206f776e657281525060200191505060405180910390fd5b6000610503600254600460009054906101000a900473ffffffffffffffffffffffffffffffffffffffff1673ffffffffffffffffffffffffffffffffffffffff16637f038f3c6040518163ffffffff1660e01b815260040160206040518083038186803b1580156104ba57600080fd5b505afa1580156104ce573d6000803e3d6000fd5b505050506040513d60208110156104e457600080fd5b8101908080519060200190929190505050610dc890919063ffffffff16565b90506000811161057b576040517f08c379a00000000000000000000000000000000000000000000000000000000081526004018080602001828103825260148152602001807f5b4d45524b4c455d4e6f2072656365697074732e00000000000000000000000081525060200191505060405180910390fd5b6000600a6001901b821061059457600a6001901b610596565b815b90506105a0611e77565b604051806060016040528060025481526020018381526020016002600a6001901b0281525090508060036000600154815260200190815260200160002060008201518160000155602082015181600101556040820151816002015590505061061382600254610e1290919063ffffffff16565b6002819055507f5aa7f45898fcb5638757632f4ea98818ccb1f1b865b0721648cfb14cfcd2da9a6001546040518082815260200191505060405180910390a161066760018054610e1290919063ffffffff16565b600181905550505050565b60015481565b610680610dc0565b73ffffffffffffffffffffffffffffffffffffffff1660008054906101000a900473ffffffffffffffffffffffffffffffffffffffff1673ffffffffffffffffffffffffffffffffffffffff1614610740576040517f08c379a00000000000000000000000000000000000000000000000000000000081526004018080602001828103825260208152602001807f4f776e61626c653a2063616c6c6572206973206e6f7420746865206f776e657281525060200191505060405180910390fd5b600073ffffffffffffffffffffffffffffffffffffffff1660008054906101000a900473ffffffffffffffffffffffffffffffffffffffff1673ffffffffffffffffffffffffffffffffffffffff167f8be0079c531659141344cd1fd0a4f28419497f9722a3daafe3b4186f6b6457e060405160405180910390a360008060006101000a81548173ffffffffffffffffffffffffffffffffffffffff021916908373ffffffffffffffffffffffffffffffffffffffff160217905550565b600a6001901b81565b600560009054906101000a900473ffffffffffffffffffffffffffffffffffffffff1681565b60008060009054906101000a900473ffffffffffffffffffffffffffffffffffffffff16905090565b6000806000806060600154861061086c57600080fd5b610874611e77565b60036000888152602001908152602001600020604051806060016040529081600082015481526020016001820154815260200160028201548152505090506108ba611e98565b60606108d3836000015184602001518560400151610e9a565b80925081935050508160000151826040015183602001518460600151849750975097509750975050505091939590929450565b60025481565b600080606080600254851061092057600080fd5b6000600180540390505b60008110610962576003600082815260200190815260200160002060000154861061095457610962565b80806001900391505061092a565b61096a611e77565b60036000838152602001908152602001600020604051806060016040529081600082015481526020016001820154815260200160028201548152505090506109b0611e98565b6109c7826000015183602001518460400151610e9a565b5080915050600081604001518903905060006109e1611ec3565b6109e9611ee6565b6109f885858860400151610fab565b80935081945082955050505060608367ffffffffffffffff81118015610a1d57600080fd5b50604051908082528060200260200182016040528015610a4c5781602001602082028036833780820191505090505b50905060608467ffffffffffffffff81118015610a6857600080fd5b50604051908082528060200260200182016040528015610a975781602001602082028036833780820191505090505b50905060005b85811015610b0a578481600a8110610ab157fe5b6020020151838281518110610ac257fe5b6020026020010181815250508381600a8110610ada57fe5b6020020151828281518110610aeb57fe5b6020026020010190151590811515815250508080600101915050610a9d565b50888583839c509c509c509c505050505050505050509193509193565b60006001548210610b3757600080fd5b610b3f611e77565b6003600084815260200190815260200160002060405180606001604052908160008201548152602001600182015481526020016002820154815250509050610b85611e98565b6060610b9e836000015184602001518560400151610e9a565b809250819350505081600001519350505050919050565b610bbd610dc0565b73ffffffffffffffffffffffffffffffffffffffff1660008054906101000a900473ffffffffffffffffffffffffffffffffffffffff1673ffffffffffffffffffffffffffffffffffffffff1614610c7d576040517f08c379a00000000000000000000000000000000000000000000000000000000081526004018080602001828103825260208152602001807f4f776e61626c653a2063616c6c6572206973206e6f7420746865206f776e657281525060200191505060405180910390fd5b600073ffffffffffffffffffffffffffffffffffffffff168173ffffffffffffffffffffffffffffffffffffffff161415610d03576040517f08c379a0000000000000000000000000000000000000000000000000000000008152600401808060200182810382526026815260200180611f0a6026913960400191505060405180910390fd5b8073ffffffffffffffffffffffffffffffffffffffff1660008054906101000a900473ffffffffffffffffffffffffffffffffffffffff1673ffffffffffffffffffffffffffffffffffffffff167f8be0079c531659141344cd1fd0a4f28419497f9722a3daafe3b4186f6b6457e060405160405180910390a3806000806101000a81548173ffffffffffffffffffffffffffffffffffffffff021916908373ffffffffffffffffffffffffffffffffffffffff16021790555050565b600033905090565b6000610e0a83836040518060400160405280601e81526020017f536166654d6174683a207375627472616374696f6e206f766572666c6f7700008152506110b3565b905092915050565b600080828401905083811015610e90576040517f08c379a000000000000000000000000000000000000000000000000000000000815260040180806020018281038252601b8152602001807f536166654d6174683a206164646974696f6e206f766572666c6f77000000000081525060200191505060405180910390fd5b8091505092915050565b610ea2611e98565b606080610eaf8686611173565b905060606000610ebf8387611719565b8092508193505050610ecf611e98565b6040518060800160405280846001850381518110610ee957fe5b602002602001015181526020018981526020018a815260200183815250905060608267ffffffffffffffff81118015610f2157600080fd5b50604051908082528060200260200182016040528015610f505781602001602082028036833780820191505090505b50905060005b83811015610f9757848181518110610f6a57fe5b6020026020010151828281518110610f7e57fe5b6020026020010181815250508080600101915050610f56565b508181965096505050505050935093915050565b6000610fb5611ec3565b610fbd611ee6565b6060610fd187604001518860200151611173565b905060606000610fe18388611719565b809250819350505088606001518114610ff957600080fd5b6060896060015167ffffffffffffffff8111801561101657600080fd5b506040519080825280602002602001820160405280156110455781602001602082028036833780820191505090505b50905060005b8a606001518110156110905783818151811061106357fe5b602002602001015182828151811061107757fe5b602002602001018181525050808060010191505061104b565b506110a0818b602001518b611a8a565b9650965096505050505093509350939050565b6000838311158290611160576040517f08c379a00000000000000000000000000000000000000000000000000000000081526004018080602001828103825283818151815260200191508051906020019080838360005b8381101561112557808201518184015260208101905061110a565b50505050905090810190601f1680156111525780820380516001836020036101000a031916815260200191505b509250505060405180910390fd5b5060008385039050809150509392505050565b6060808267ffffffffffffffff8111801561118d57600080fd5b506040519080825280602002602001820160405280156111bc5781602001602082028036833780820191505090505b50905060008490505b83850181101561170e5760606000600460009054906101000a900473ffffffffffffffffffffffffffffffffffffffff1673ffffffffffffffffffffffffffffffffffffffff16630f7ee1ec846040518263ffffffff1660e01b81526004018082815260200191505060006040518083038186803b15801561124657600080fd5b505afa15801561125a573d6000803e3d6000fd5b505050506040513d6000823e3d601f19601f8201168201806040525060e081101561128457600080fd5b810190808051906020019092919080519060200190929190805160405193929190846401000000008211156112b857600080fd5b838201915060208201858111156112ce57600080fd5b82518660018202830111640100000000821117156112eb57600080fd5b8083526020830192505050908051906020019080838360005b8381101561131f578082015181840152602081019050611304565b50505050905090810190601f16801561134c5780820380516001836020036101000a031916815260200191505b50604052602001805190602001909291908051906020019092919080519060200190929190805190602001909291905050505050509350935050506000600282604051602001808281526020019150506040516020818303038152906040526040518082805190602001908083835b602083106113de57805182526020820191506020810190506020830392506113bb565b6001836020036101000a038019825116818451168082178552505050505050905001915050602060405180830381855afa158015611420573d6000803e3d6000fd5b5050506040513d602081101561143557600080fd5b8101908080519060200190929190505050905060006002846040516020018082805190602001908083835b602083106114835780518252602082019150602081019050602083039250611460565b6001836020036101000a0380198251168184511680821785525050505050509050019150506040516020818303038152906040526040518082805190602001908083835b602083106114ea57805182526020820191506020810190506020830392506114c7565b6001836020036101000a038019825116818451168082178552505050505050905001915050602060405180830381855afa15801561152c573d6000803e3d6000fd5b5050506040513d602081101561154157600080fd5b810190808051906020019092919050505090506000600286604051602001808281526020019150506040516020818303038152906040526040518082805190602001908083835b602083106115ab5780518252602082019150602081019050602083039250611588565b6001836020036101000a038019825116818451168082178552505050505050905001915050602060405180830381855afa1580156115ed573d6000803e3d6000fd5b5050506040513d602081101561160257600080fd5b8101908080519060200190929190505050905060028383836040516020018084815260200183815260200182815260200193505050506040516020818303038152906040526040518082805190602001908083835b6020831061167a5780518252602082019150602081019050602083039250611657565b6001836020036101000a038019825116818451168082178552505050505050905001915050602060405180830381855afa1580156116bc573d6000803e3d6000fd5b5050506040513d60208110156116d157600080fd5b8101908080519060200190929190505050878b8803815181106116f057fe5b602002602001018181525050505050505080806001019150506111c5565b508091505092915050565b60606000808451905060008060008060608867ffffffffffffffff8111801561174157600080fd5b506040519080825280602002602001820160405280156117705781602001602082028036833780820191505090505b50905060005b868110156117b7578a818151811061178a57fe5b602002602001015182828151811061179e57fe5b6020026020010181815250508080600101915050611776565b50600086905060016117d460028d51611c5c90919063ffffffff16565b1415611830578a6117ef600189610dc890919063ffffffff16565b815181106117f957fe5b602002602001015182888151811061180d57fe5b60200260200101818152505061182d600182610e1290919063ffffffff16565b90505b6000611846600283611ca690919063ffffffff16565b90505b61185d600183610dc890919063ffffffff16565b841015611a755782848151811061187057fe5b6020026020010151965061188e600185610e1290919063ffffffff16565b935082848151811061189c57fe5b602002602001015195506118ba600185610e1290919063ffffffff16565b93506002878760405160200180838152602001828152602001925050506040516020818303038152906040526040518082805190602001908083835b6020831061191957805182526020820191506020810190506020830392506118f6565b6001836020036101000a038019825116818451168082178552505050505050905001915050602060405180830381855afa15801561195b573d6000803e3d6000fd5b5050506040513d602081101561197057600080fd5b810190808051906020019092919050505083838151811061198d57fe5b6020026020010181815250506119ad600183610e1290919063ffffffff16565b91508085600101955085146119c157611849565b60016119d7600283611c5c90919063ffffffff16565b1480156119e5575060018114155b15611a56576119fe600182610e1290919063ffffffff16565b905082611a15600184610dc890919063ffffffff16565b81518110611a1f57fe5b6020026020010151838381518110611a3357fe5b602002602001018181525050611a53600183610e1290919063ffffffff16565b91505b611a6a600282611ca690919063ffffffff16565b905060009450611849565b82829950995050505050505050509250929050565b6000611a94611ec3565b611a9c611ee6565b611aa4611ec3565b611aac611ee6565b600080889050600080600080600090505b611ad260018f51610dc890919063ffffffff16565b8c1015611c42576000611aef60028e611c5c90919063ffffffff16565b1415611b27578d611b0a60018e610e1290919063ffffffff16565b81518110611b1457fe5b6020026020010151935060009250611b55565b8d611b3c60018e610dc890919063ffffffff16565b81518110611b4657fe5b60200260200101519350600192505b838882600a8110611b6257fe5b602002018181525050828782600a8110611b7857fe5b602002019015159081151581525050611b9b600182610e1290919063ffffffff16565b90506000611bb3600287611c5c90919063ffffffff16565b14611bd157611bcc600186610e1290919063ffffffff16565b611bd3565b845b9450611bfb6002611bed888f610dc890919063ffffffff16565b611ca690919063ffffffff16565b9150611c108587610e1290919063ffffffff16565b9550611c258287610e1290919063ffffffff16565b9b50611c3b600286611ca690919063ffffffff16565b9450611abd565b8088889a509a509a50505050505050505093509350939050565b6000611c9e83836040518060400160405280601881526020017f536166654d6174683a206d6f64756c6f206279207a65726f0000000000000000815250611cf0565b905092915050565b6000611ce883836040518060400160405280601a81526020017f536166654d6174683a206469766973696f6e206279207a65726f000000000000815250611db1565b905092915050565b6000808314158290611d9d576040517f08c379a00000000000000000000000000000000000000000000000000000000081526004018080602001828103825283818151815260200191508051906020019080838360005b83811015611d62578082015181840152602081019050611d47565b50505050905090810190601f168015611d8f5780820380516001836020036101000a031916815260200191505b509250505060405180910390fd5b50828481611da757fe5b0690509392505050565b60008083118290611e5d576040517f08c379a00000000000000000000000000000000000000000000000000000000081526004018080602001828103825283818151815260200191508051906020019080838360005b83811015611e22578082015181840152602081019050611e07565b50505050905090810190601f168015611e4f5780820380516001836020036101000a031916815260200191505b509250505060405180910390fd5b506000838581611e6957fe5b049050809150509392505050565b60405180606001604052806000815260200160008152602001600081525090565b6040518060800160405280600080191681526020016000815260200160008152602001600081525090565b604051806101400160405280600a90602082028036833780820191505090505090565b604051806101400160405280600a9060208202803683378082019150509050509056fe4f776e61626c653a206e6577206f776e657220697320746865207a65726f2061646472657373a2646970667358221220acb84fe45fa681c9639f0cc030320abaea497f57e00844cb7992028c40c1780a64736f6c634300060c0033",
  "immutableReferences": {},
  "source": "import \"@openzeppelin/contracts/access/Ownable.sol\";\nimport \"./Receipts.sol\";\nimport \"@openzeppelin/contracts/math/SafeMath.sol\";\n\npragma solidity 0.6.12;\n\ncontract MerkleTreeGenerator is Ownable {\n\n    using SafeMath for uint256;\n\n    uint256 constant pathMaximalLength = 10;\n    uint256 constant public MerkleTreeMaximalLeafCount = 1 << pathMaximalLength;\n    uint256 constant TreeMaximalSize = MerkleTreeMaximalLeafCount * 2;\n    uint256 public merkleTreeCount = 0;\n    uint256 public receiptCountInTree = 0;\n\n    mapping(uint256 => ReceiptCollection) receiptCollections;\n\n    Receipts receiptProvider;\n    address public receiptProviderAddress;\n\n    struct MerkleTree {\n        bytes32 root;\n        uint256 leaf_count;\n        uint256 first_receipt_id;\n        uint256 size;\n    }\n\n    struct ReceiptCollection {\n        uint256 first_receipt_id;\n        uint256 receipt_count;\n        uint256 tree_size;\n    }\n\n    event NewTree(uint256 treeIndex);\n\n\n    constructor (Receipts _receiptMaker) public {\n        receiptProviderAddress = address(_receiptMaker);\n        receiptProvider = _receiptMaker;\n    }\n\n    //fetch receipts\n    function _receiptsToLeaves(uint256 _start, uint256 _leafCount) private view returns (bytes32[] memory){\n        bytes32[] memory leaves = new bytes32[](_leafCount);\n\n        for (uint256 i = _start; i < _start + _leafCount; i++) {\n            (\n            ,\n            ,\n            string memory targetAddress,\n            uint256 amount,\n            ,\n            ,\n            ) = receiptProvider.receipts(i);\n\n            bytes32 amountHash = sha256(abi.encodePacked(amount));\n            bytes32 targetAddressHash = sha256(abi.encodePacked(targetAddress));\n            bytes32 receiptIdHash = sha256(abi.encodePacked(i));\n\n            leaves[i - _start] = (sha256(abi.encode(amountHash, targetAddressHash, receiptIdHash)));\n        }\n\n        return leaves;\n    }\n\n    function recordReceipts() external onlyOwner {\n        uint256 receiptCount = receiptProvider.receiptCount().sub(receiptCountInTree);\n        require(receiptCount > 0, \"[MERKLE]No receipts.\");\n        uint256 leafCount = receiptCount < MerkleTreeMaximalLeafCount ? receiptCount : MerkleTreeMaximalLeafCount;\n        ReceiptCollection memory receiptCollection = ReceiptCollection(receiptCountInTree, leafCount, TreeMaximalSize);\n        receiptCollections[merkleTreeCount] = receiptCollection;\n        receiptCountInTree = receiptCountInTree.add(leafCount);\n        emit NewTree(merkleTreeCount);\n        merkleTreeCount = merkleTreeCount.add(1);\n    }\n\n    function getMerkleTree(uint256 _treeIndex) public view returns (bytes32, uint256, uint256, uint256, bytes32[] memory){\n        require(_treeIndex < merkleTreeCount);\n        ReceiptCollection memory receiptCollection = receiptCollections[_treeIndex];\n        MerkleTree memory merkleTree;\n        bytes32[] memory treeNodes;\n        (merkleTree, treeNodes) = _generateMerkleTree(receiptCollection.first_receipt_id, receiptCollection.receipt_count,receiptCollection.tree_size);\n        return (merkleTree.root, merkleTree.first_receipt_id, merkleTree.leaf_count, merkleTree.size, treeNodes);\n    }\n\n    function getMerkleTreeRoot(uint256 _treeIndex) public view returns (bytes32){\n        require(_treeIndex < merkleTreeCount);\n        ReceiptCollection memory receiptCollection = receiptCollections[_treeIndex];\n        MerkleTree memory merkleTree;\n        bytes32[] memory treeNodes;\n        (merkleTree, treeNodes) = _generateMerkleTree(receiptCollection.first_receipt_id, receiptCollection.receipt_count,receiptCollection.tree_size);\n        return merkleTree.root;\n    }\n\n    //get users merkle tree path\n    function generateMerklePath(uint256 _receiptId) public view returns (uint256, uint256, bytes32[] memory, bool[] memory) {\n        require(_receiptId < receiptCountInTree);\n\n        uint256 treeIndex = merkleTreeCount - 1;\n        for (; treeIndex >= 0; treeIndex--) {\n            if (_receiptId >= receiptCollections[treeIndex].first_receipt_id)\n                break;\n        }\n\n        ReceiptCollection memory receiptCollection = receiptCollections[treeIndex];\n        MerkleTree memory merkleTree;\n        (merkleTree,) = _generateMerkleTree(receiptCollection.first_receipt_id, receiptCollection.receipt_count, receiptCollection.tree_size);\n        uint256 index = _receiptId - merkleTree.first_receipt_id;\n\n        uint256 pathLength;\n        bytes32[pathMaximalLength] memory path;\n        bool[pathMaximalLength] memory isLeftNeighbors;\n        (pathLength, path, isLeftNeighbors) = _generatePath(merkleTree, index, receiptCollection.tree_size);\n\n        bytes32[] memory neighbors = new bytes32[](pathLength);\n        bool[] memory positions = new bool[](pathLength);\n\n        for (uint256 i = 0; i < pathLength; i++) {\n            neighbors[i] = path[i];\n            positions[i] = isLeftNeighbors[i];\n        }\n        return (treeIndex, pathLength, neighbors, positions);\n    }\n\n    function _generateMerkleTree(uint256 _firstReceiptId, uint256 _leafCount, uint256 treeMaximalSize) private view returns (MerkleTree memory, bytes32[] memory) {\n        bytes32[] memory leafNodes = _receiptsToLeaves(_firstReceiptId, _leafCount);\n        bytes32[] memory allNodes;\n        uint256 nodeCount;\n\n        (allNodes, nodeCount) = _leavesToTree(leafNodes, treeMaximalSize);\n        MerkleTree memory merkleTree = MerkleTree(allNodes[nodeCount - 1], _leafCount, _firstReceiptId, nodeCount);\n\n        bytes32[] memory treeNodes = new bytes32[](nodeCount);\n        for (uint256 t = 0; t < nodeCount; t++) {\n            treeNodes[t] = allNodes[t];\n        }\n        return (merkleTree, treeNodes);\n    }\n\n    function _generatePath(MerkleTree memory _merkleTree, uint256 _index, uint256 treeMaximalSize) private view returns (uint256, bytes32[pathMaximalLength] memory, bool[pathMaximalLength] memory){\n\n        bytes32[] memory leaves = _receiptsToLeaves(_merkleTree.first_receipt_id, _merkleTree.leaf_count);\n        bytes32[] memory allNodes;\n        uint256 nodeCount;\n\n        (allNodes, nodeCount) = _leavesToTree(leaves, treeMaximalSize);\n        require(nodeCount == _merkleTree.size);\n\n        bytes32[] memory nodes = new bytes32[](_merkleTree.size);\n        for (uint256 t = 0; t < _merkleTree.size; t++) {\n            nodes[t] = allNodes[t];\n        }\n\n        return _generatePath(nodes, _merkleTree.leaf_count, _index);\n    }\n\n    function _generatePath(bytes32[] memory _nodes, uint256 _leafCount, uint256 _index) private pure returns (uint256, bytes32[pathMaximalLength] memory, bool[pathMaximalLength] memory){\n        bytes32[pathMaximalLength] memory neighbors;\n        bool[pathMaximalLength] memory isLeftNeighbors;\n        uint256 indexOfFirstNodeInRow = 0;\n        uint256 nodeCountInRow = _leafCount;\n        bytes32 neighbor;\n        bool isLeftNeighbor;\n        uint256 shift;\n        uint256 i = 0;\n\n        while (_index < _nodes.length.sub(1)) {\n\n            if (_index.mod(2) == 0)\n            {\n                // add right neighbor node\n                neighbor = _nodes[_index.add(1)];\n                isLeftNeighbor = false;\n            }\n            else\n            {\n                // add left neighbor node\n                neighbor = _nodes[_index.sub(1)];\n                isLeftNeighbor = true;\n            }\n\n            neighbors[i] = neighbor;\n            isLeftNeighbors[i] = isLeftNeighbor;\n            i = i.add(1);\n\n            nodeCountInRow = nodeCountInRow.mod(2) == 0 ? nodeCountInRow : nodeCountInRow.add(1);\n            shift = _index.sub(indexOfFirstNodeInRow).div(2);\n            indexOfFirstNodeInRow = indexOfFirstNodeInRow.add(nodeCountInRow);\n            _index = indexOfFirstNodeInRow.add(shift);\n            nodeCountInRow =nodeCountInRow.div(2);\n        }\n\n        return (i, neighbors, isLeftNeighbors);\n    }\n\n    function _leavesToTree(bytes32[] memory _leaves, uint256 maximalTreeSize) private pure returns (bytes32[] memory, uint256){\n        uint256 leafCount = _leaves.length;\n        bytes32 left;\n        bytes32 right;\n\n        uint256 newAdded = 0;\n        uint256 i = 0;\n\n        bytes32[] memory nodes = new bytes32[](maximalTreeSize);\n\n        for (uint256 t = 0; t < leafCount; t++)\n        {\n            nodes[t] = _leaves[t];\n        }\n\n        uint256 nodeCount = leafCount;\n        if (_leaves.length.mod(2) == 1) {\n            nodes[leafCount] = (_leaves[leafCount.sub(1)]);\n            nodeCount = nodeCount.add(1);\n        }\n\n        // uint256 nodeToAdd = nodes.length / 2;\n        uint256 nodeToAdd = nodeCount.div(2);\n\n        while (i < nodeCount.sub(1)) {\n\n            left = nodes[i];\n            i = i.add(1);\n\n            right = nodes[i];\n            i = i.add(1);\n\n            nodes[nodeCount] = sha256(abi.encode(left, right));\n            nodeCount = nodeCount.add(1);\n\n            if (++newAdded != nodeToAdd)\n                continue;\n\n            if (nodeToAdd.mod(2) == 1 && nodeToAdd != 1)\n            {\n                nodeToAdd = nodeToAdd.add(1);\n                nodes[nodeCount] = nodes[nodeCount.sub(1)];\n                nodeCount = nodeCount.add(1);\n            }\n\n            nodeToAdd = nodeToAdd.div(2);\n            newAdded = 0;\n        }\n\n        return (nodes, nodeCount);\n    }\n}",
  "sourcePath": "/Users/swk/Documents/Hoopox/shiwk/token_swap/sol/token_swap/contracts/merkle.sol",
  "compiler": {
    "name": "solc",
    "version": "0.6.12+commit.27d51765.Emscripten.clang"
  },
  "schemaVersion": "3.2.3",
  "updatedAt": "2021-01-20T10:43:08.598Z",
  "devdoc": {
    "kind": "dev",
    "methods": {
      "owner()": {
        "details": "Returns the address of the current owner."
      },
      "renounceOwnership()": {
        "details": "Leaves the contract without owner. It will not be possible to call `onlyOwner` functions anymore. Can only be called by the current owner. NOTE: Renouncing ownership will leave the contract without an owner, thereby removing any functionality that is only available to the owner."
      },
      "transferOwnership(address)": {
        "details": "Transfers ownership of the contract to a new account (`newOwner`). Can only be called by the current owner."
      }
    },
    "version": 1
  },
  "userdoc": {
    "kind": "user",
    "methods": {},
    "version": 1
  }
}